:100000000C945D000C94E90B0C94100C0C9485007E
:100010000C9485000C9485000C9485000C9485004C
:100020000C9485000C9485000C9485000C9485003C
:100030000C9485000C9485000C9485000C9485002C
:100040000C94F90A0C9485000C9485000C9485009E
:100050000C9485000C9485000C9485000C9485000C
:100060000C9485000C94850000000008000201003B
:100070000003040700000000000000000102040863
:100080001020408001020408102001020408102002
:10009000040404040404040402020202020203032E
:1000A0000303030300000000250028002B000000CC
:1000B0000000240027002A00E30B11241FBECFEF0D
:1000C000D8E0DEBFCDBF12E0A0E0B1E0E4E8F8E1A7
:1000D00002C005900D92A038B107D9F726E0A0E83C
:1000E000B2E001C01D92AB30B207E1F710E0CDE500
:1000F000D0E004C02197FE010E943A0CCC35D10714
:10010000C9F70E94D40B0C94370C0C940000E2E168
:100110000E942C010895E9E00E942C010895EAE074
:100120000E942C010895E1E00E942C010895E3E073
:100130000E942C010895E7E00E942C010895E5E05B
:100140000E942C010895E0E00E942C010895E2E055
:100150000E942C010895E4E00E942C010895ECE037
:100160000E942C010895E8E00E942C010895EEE021
:100170000E942C010895E4E10E942C010895E0E121
:100180000E942C010895E7E10E942C010895E6E009
:100190000E942C010895EBE00E942C010895EDE0EF
:1001A0000E942C010895EFE00E942C010895E1E1E6
:1001B0000E942C010895E3E10E942C010895E5E1DD
:1001C0000E942C010895E6E10E942C0108952196D9
:1001D0008A929A92AA92BA92CA92DA92EA92FA927F
:1001E0000A931A932197E0916B01F0916C010080C2
:1001F000F181E02DC083D1830895C0916D01D0912C
:100200006E01E881F981C081D1812196199109910E
:10021000F990E990D990C990B990A9909990899056
:10022000219708952F903F90E7E6F1E0CDB7DEB734
:10023000EDBFFEBF3F922F9208952F903F90CDBF0C
:10024000DEBF3F922F920895E0E80E942C010895AE
:10025000E0E40E942C0108952F923F924F925F920A
:100260006F927F922FB62F92CF93DF937E2EF894CA
:10027000E0910001EF5FE0930001E13011F40E9492
:100280001201E0E0E0937B01E72DE07849F00E9465
:100290008C05F0917C01F17071F00E9419040BC083
:1002A000E72DEC3140F4EE0FF0E0E15BFD4F019003
:1002B000F081E02D0995F0917B01EF2FE17059F06D
:1002C000F27011F00E94E7008F938F2F0E9463035A
:1002D0008F910E94FD002091000121502093000188
:1002E000222311F40E941D01DF91CF912F902FBE88
:1002F0007F906F905F904F903F902F900895FC01FA
:100300004081FB013081842F8F7090E0B0E0A0E04D
:10031000B695A795979587958B569D4FFC01808143
:10032000242F281B21704E70242B832F8F7090E078
:10033000B0E0A0E0B695A795979587958B569D4F11
:10034000FC018081932F981B91703E70932B41E0AC
:1003500050E0291710F050E040E0CA0108958F9254
:100360009F92AF92BF92EF92FF920F931F93CF9302
:10037000DF937C014A015B01B694A794979487941C
:10038000423051056105710580F0440F551F87010A
:10039000040F151FE401CC0FDD1FCE0DDF1DB801CA
:1003A000CE010E947F01892B59F4DF91CF911F91DB
:1003B0000F91FF90EF90BF90AF909F908F90089516
:1003C000F80190818181288139813183208398834C
:1003D0008983B501A401D0CF4F925F926F927F9233
:1003E0008F929F92AF92BF92CF92DF92EF92FF9245
:1003F0000F931F93CF93DF9300D000D000D0CDB7E1
:10040000DEB78C016A017B01DC018C91282F30E082
:1004100050E040E029833A834B835C8346015701D7
:10042000880C991CAA1CBB1C29813A814B815C81D8
:10043000281539054A055B05B8F426960FB6F894D9
:10044000DEBF0FBECDBFDF91CF911F910F91FF9007
:10045000EF90DF90CF90BF90AF909F908F907F9064
:100460006F905F904F900895240135013FEF431A3C
:10047000530A630A730A89819A81AB81BC8184150E
:100480009505A605B70580F0B201660F771F600FCE
:10049000711FC401880F991F800F911F0E947F0157
:1004A000892B11F0530142013401660C771C600E58
:1004B000711ECC0CDD1CD801AC0DBD1DBE83AD83FF
:1004C000B301CD010E947F01892B09F4B6CFED81E4
:1004D000FE8190818181D3012D913C9111973183CF
:1004E00020839C9311968C937501640197CFEFEA5A
:1004F000F2E040814F5F408350E070E060E0E82F21
:10050000EE0FFF0BEC5FFD4F0190F081E02D238596
:1005100030E0F901EB56FD4F908191509083FA0144
:10052000EE0FFF1FE155FD4F220F331F9170922BED
:10053000908381838FEA92E00C94AF01EFEAF2E0BE
:1005400040814F5F408350E070E060E0FA01EE0FC1
:10055000FF1FE155FD4FA82FAA0FBB0BA450BE4FA4
:100560000D90BC91A02D13969C91908381838FEA6E
:1005700092E00C94AF01CF93DF93EFEAF2E0808139
:100580009FEF980F9083D281C38190E0880F991FCD
:1005900081559D4FDC018D919C919383828341E035
:1005A00050E060E070E0CF010E94EC018D2F9C2FA5
:1005B000DF91CF91089580918002811114C08091C4
:1005C000730190917401A0917501B09176018F3FF4
:1005D0002FEF9207A207B20741F00397A105B105DB
:1005E00034F481E0089584E0089580E0089582E085
:1005F0000895CF93DF93880F990BFC01EC5FFD4FBB
:100600000190F081E02D0084F185E02D3097E1F03C
:100610002281211119C021E0228384509E4FEC01D8
:10062000A881B98113968C9113978183208130E042
:10063000F901EB56FD4F808181508083220F331FDB
:100640008170822B13968C93DF91CF910895CF9375
:10065000DF93880F990BFC01EC5FFD4F0190F08157
:10066000E02D0084F185E02D309761F0228121306A
:1006700049F4128284509E4FEC01A881B981818196
:1006800013968C93DF91CF9108958091770190918B
:100690007801A0917901B0917A0140917301509154
:1006A00074016091750170917601481759076A07C6
:1006B0007B0741F0E0917101F091720121E0248308
:1006C0000C949E020895CF93DF93D0E0C0E088237E
:1006D00089F0C0916B01D0916C01E0916F01F091B4
:1006E00070018481833031F081E0848380917301D3
:1006F0000E949E02E0917101F0917201F0937001ED
:10070000E0936F0180916D0190916E0190936C0167
:1007100080936B018091770130917801209179016C
:1007200090917A0180937301309374012093750145
:100730009093760192E094830E94F902CE01DF91BA
:10074000CF910895809173010E942703E0916F017A
:10075000F09170018281882319F085E084830895E7
:1007600014820895CF93DF93282F220F330BF901C2
:10077000E450FE4FC081D1819A812C5F3D4FD90159
:10078000ED91FC912485921780F4911105C095E0BC
:100790009C8391E090937C010E9477028A818F5F15
:1007A0008A8380E0DF91CF91089584E0FBCFE82F2A
:1007B000EE0FFF0BE450FE4F0190F081E02D11820F
:1007C00010820C948D0B1F93CF93DF930E94BB027A
:1007D000182F892F492F092E000C550B660B770B0C
:1007E00040937701509378016093790170937A0177
:1007F000292F220F330BF901E450FE4FC081D18124
:10080000D0937201C09371012C5F3D4FF90120819B
:10081000318130936E0120936D019C81953019F4E4
:100820000E94D7031B8310927C01DF91CF911F910F
:100830000895E0917701F0917801EE0FFF1FE450E9
:10084000FE4F0190F081E02D9091B10283818917D4
:1008500040F40E9445030E94E30383E080937B0100
:10086000089580E0FBCF81E080937B010C94E3034B
:10087000EF92FF920F931F93CF93DF93C1E001C0DC
:10088000CC0F8A95EAF720910A0230910B028091F1
:100890000202909103021092AF0210926C0110922A
:1008A0006B0130936E0120936D01109270011092D4
:1008B0006F0190937201809371018FEF9FEFDC01C4
:1008C0008093730190937401A0937501B0937601A6
:1008D0008093770190937801A0937901B0937A0186
:1008E00010927B0110927C0183E00E94B2030BE422
:1008F00012E0D0E0F80181918F018C2319F08D2F47
:100900000E94B203DF5FD330A9F708E412E08BED59
:10091000E82E81E0F82ED1E0F80181918F018C233F
:1009200039F0F70180819181FC01D6870E94D004C3
:10093000F2E0EF0EF11C82E00B34180769F7DF914B
:10094000CF911F910F91FF90EF9008950E94730631
:1009500081110E949406E0916F01F09170018081F5
:100960009181892B21F0809173010E9459080C9488
:10097000BC070E94730681110E949406E0916F01EA
:10098000F091700180819181892B21F08091730118
:100990000E9459080C94A40781E080938102089575
:1009A000CF92DF92EF92FF920F931F93CF93DF933B
:1009B000FC01A081B1810D90BC91A02D54968D9128
:1009C0009C915597009709F445C0428553856485ED
:1009D000758530E020E0EC01CA84DB84EC84FD8482
:1009E0004C155D056E057F0508F049C08C01138329
:1009F0000283358324830115110519F0E801FD8375
:100A0000EC832115310509F444C0E901FB83EA8335
:100A10005696CD91DC9157970A851B852C853D858F
:100A20005096CD90DD90ED90FC9053970C151D05E0
:100A30002E053F0598F5C416D506E606F70628F0FC
:100A4000401751076207730788F45796FC93EE939B
:100A500056970CC05596FC93EE9354975796FC937B
:100A6000EE9356971582148213821282DF91CF91F2
:100A70001F910F91FF90EF90DF90CF900895EC01C0
:100A80000A811B819C010115110509F4B0CFC80131
:100A9000A2CF5596FC93EE935497BACFC416D506C1
:100AA000E606F70668F2E2CFCF93DF93DC01ED9123
:100AB000FC9111970190F081E02D8489958912961F
:100AC000CD91DC9113978A179B0711F4D58BC48BBA
:100AD000868997898A179B0711F4D78BC68B209735
:100AE00031F014968D919C9115979D838C8314966B
:100AF0000D90BC91A02D109721F01396DC93CE930E
:100B0000129786899789892B21F484899589978BF7
:100B1000868BDF91CF910895EF92FF920F931F93F1
:100B2000CF93DF93FC0180918102882309F4ACC04C
:100B300084859585A685B7850196A11DB11D8487FD
:100B40009587A687B7874081518162817381841719
:100B50009507A607B70709F097C080899189A289F0
:100B6000B3890196A11DB11D4481558166817781AC
:100B7000481759076A077B0718F480E090E0DC010A
:100B8000808B918BA28BB38B148615861686178665
:100B9000C689D789209709F477C04A855B856C851B
:100BA0007D85481759076A077B0709F06DC0CE019C
:100BB000DC011296ED90FC90E114F10469F0D7018C
:100BC0001A960D911D912D913C911D97401751073B
:100BD0006207730709F45FC02C813D81211531053F
:100BE00029F0D9011396FC92EE921297E114F104C8
:100BF00029F0D70115963C932E93149724893589B3
:100C0000C217D30711F4F58AE48AE114F10409F458
:100C100044C0F78AE68A8F01FC0113821282EA80BF
:100C2000FB80E881F9810280F381E02DCE010995F6
:100C30008E819F81A885B9850097A105B10591F1A5
:100C40004A855B856C857D85840F951FA61FB71F20
:100C5000F8014481558166817781481759076A07F1
:100C60007B0740F44095509560957095840F951FD3
:100C7000A61FB71F8A879B87AC87BD87CE010E94BE
:100C8000D004E701209759F6DF91CF911F910F9182
:100C9000FF90EF900895C7018BCF24893589378B5A
:100CA000268BB9CF1E86EDCFFC0182810C94B20356
:100CB0000E947306809168010895809368010E94E4
:100CC00038040E94CC040C9433040C948C0BCF9306
:100CD000C82F0E94DB02811102C00E94CA0B8C2F18
:100CE000CF910C948B0080918E028130D9F080914D
:100CF000860290918702A0918802B0918902892B87
:100D00008A2B8B2B79F481E040918A0250918B02DF
:100D100060918C0270918D02452B462B472B19F464
:100D200080E0089581E0089510928E0210928A0268
:100D300010928B0210928C0210928D0210928602F9
:100D4000109287021092880210928902809182028A
:100D500090918302A0918402B091850280938F02CA
:100D600090939002A0939102B093920208950E94F2
:100D7000CD0B80918F0290919002A0919102B09141
:100D800092020196A11DB11D80938F029093900253
:100D9000A0939102B093920280918A0290918B026B
:100DA000A0918C02B0918D020196A11DB11D80937E
:100DB0008A0290938B02A0938C02B0938D020895C7
:100DC00080918A0290918B02A0918C02B0918D0249
:100DD0000097A105B10569F140918F0250919002F1
:100DE000609191027091920241505109610971091B
:100DF00040938F02509390026093910270939202FD
:100E00000197A109B10980938A0290938B02A09364
:100E10008C02B0938D0280918F0290919002A091EC
:100E20009102B0919202892B8A2B8B2B11F40C9496
:100E3000CB0B089580918A0290918B02A0918C0235
:100E4000B0918D02892B8A2B8B2B89F4809186029D
:100E500090918702A0918802B0918902892B8A2BF8
:100E60008B2B29F40E94CD0B81E080938E02089594
:100E700080918E02882321F010928E020C94CB0B6D
:100E800008950E94D10B80918F0290919002A091C1
:100E90009102B09192020196A11DB11D80938F0223
:100EA00090939002A0939102B09392028091860257
:100EB00090918702A0918802B09189020196A11DAC
:100EC000B11D8093860290938702A0938802B0930D
:100ED000890208958091860290918702A0918802EC
:100EE000B09189020097A105B10569F140918F0287
:100EF000509190026091910270919202415051097B
:100F00006109710940938F0250939002609391029E
:100F1000709392020197A109B10980938602909380
:100F20008702A0938802B093890280918F029091EA
:100F30009002A0919102B0919202892B8A2B8B2B67
:100F400011F40C94CF0B08950E947306882311F0BE
:100F500083E1089580E00895CF93C82F0E9473061F
:100F60008C2F0E94B203C82F80917C0181110E94B6
:100F700019048C2FCF910895CF930E947306C3E17B
:100F8000811101C0C0E0E0916F01F0917001828198
:100F9000815082830E94A20381E080937B010E94A2
:100FA000E3038C2FCF910895CF93C82F0E9473062F
:100FB000E0916F01F09170018281815082838C2FCA
:100FC0000E94B203C82F81110AC00E94A20381E0CF
:100FD00080937B010E94E3038C2FCF910895E091D1
:100FE0006F01F091700182818F5F8283F5CFCF9383
:100FF0000E947306C3E1811101C0C0E080917301BA
:101000000E9427030E94190480917301909174013A
:10101000A0917501B09176014091770150917801CE
:101020006091790170917A0184179507A607B70737
:1010300011F40E94F9028C2FCF910895CF93DF9382
:10104000EC010E947306882391F083E140917301C3
:101050005091740160917501709176014330510592
:101060006105710534F44883DF91CF91089580E0E4
:10107000EDCF9091DA019883F7CF0F931F93CF9321
:10108000C82F8B010E947306882389F083E1EC2F1F
:10109000EE0FFF0BE450FE4F0190F081E02D9481A4
:1010A0009370F8019083CF911F910F91089580E084
:1010B000EECF880F990BFC01E450FE4FA081B18167
:1010C000ED91FC911197309769F01D921C9220913F
:1010D000DA0193818481228314821382E92FF82F0D
:1010E0003097B9F70895CF93C82F0E9473068823CD
:1010F00081F183E1EC2FF0E0EE0FFF1FEC5BFD4F81
:101100000190F081E02D909173019283A0916F0185
:10111000B09170012D913C911197348323831196E6
:10112000FC93EE9313969C9113979183208196954F
:10113000921768F430E0F901EB56FD4F9081915021
:101140009083220F331F9170922B13969C93CF9113
:10115000089580E0CFCFCF93DF93C82F0E9473060E
:10116000D3E1811101C0D0E0EC2FF0E0EE0FFF1FC2
:10117000EC5BFD4F0190F081E02DA0916F01B091EB
:101180007001818113968C931397838194818D9341
:101190009C93148213828091DA0182830E94190445
:1011A0008D2FDF91CF910895DC01ED91FC91848129
:1011B0009581DC01ED91FC9109941F93CF93DF930E
:1011C000182FEB010E947306882361F183E1E12F60
:1011D000F0E0EE0FFF1FE552FE4F0190F081E02D91
:1011E0000190F081E02D0190F081E02D408151814E
:1011F000628173814C835D836E837F8344815581DB
:1012000066817781488359836A837B8340855185D2
:1012100062857385488759876A877B87DF91CF917D
:101220001F91089580E0D3CF8F929F92AF92BF928B
:10123000CF92DF92EF92FF920F931F93CF93C82F1D
:101240008B010E9473068823E9F183E1EC2FF0E023
:10125000EE0FFF1FE552FE4F0190F081E02D9685C5
:10126000913091F542855385648575850190F081B3
:10127000E02D0190F081E02DC088D188E288F388CC
:101280004C155D056E057F0540F484809580A68031
:10129000B780480D591D6A1D7B1D4C195D096E09EB
:1012A0007F09F8014083518362837383CF911F913B
:1012B0000F91FF90EF90DF90CF90BF90AF909F90F5
:1012C0008F90089580E0C2CF85E0F0CF8F929F92FB
:1012D000AF92BF92CF92DF92EF92FF920F931F9344
:1012E000CF93DF93D82F6A017B01480159010E94F7
:1012F0007306C3E1811101C0C0E0ED2FF0E0EE0FF5
:10130000FF1FE552FE4F0190F081E02D868581118F
:101310003DC0A081B1810D90BC91A02D50964D9102
:101320005D916D917C9153974C0D5D1D6E1D7F1DE0
:1013300014968D919D910D90BC91A02D84179507C9
:10134000A607B70740F4481B590B6A0B7B0B4150AB
:1013500051096109710942875387648775878682BD
:101360009782A086B18681E08687CF010E94D00453
:101370008C2FDF91CF911F910F91FF90EF90DF9015
:10138000CF90BF90AF909F908F900895C7E0F0CF1F
:101390008F929F92AF92BF92CF92DF92EF92FF9285
:1013A0000F931F93CF93DF93C82F4A015B0168010E
:1013B00079010E947306D3E1811101C0D0E0EC2FC6
:1013C000F0E0EE0FFF1FE552FE4F0190F081E02D9F
:1013D000868581111BC082869386A486B586C682C7
:1013E000D782E086F18681E08687CF010E94D00413
:1013F0008D2FDF91CF911F910F91FF90EF90DF9094
:10140000CF90BF90AF909F908F900895D7E0F0CF8E
:101410000F931F93CF93DF93C82F0E947306D3E1DE
:10142000811101C0D0E0EC2FF0E0EE0FFF1FE5527C
:10143000FE4F00811181F8018685813059F4C80181
:101440000E945405F80116868D2FDF91CF911F91D0
:101450000F910895D5E0F8CF61E08DE00C948F0AEC
:1014600061E08DE00E94CB0A8091930290919402FA
:101470008C509E4F90939402809393020C94B300EF
:1014800060E08DE00E94CB0A8091690190916A0131
:1014900082519D4F90936A01809369010C94B3002F
:1014A000809147020E94E300809146020E94E3007F
:1014B00060E08DE00E94CB0A80E00E948F000C94D7
:1014C000B30089EB91E00C9424010895833081F0FE
:1014D00028F4813099F08230A9F008958730A9F07E
:1014E0008830C9F08430B1F4809180008F7D03C0D2
:1014F000809180008F7780938000089584B58F77E6
:1015000084BD089584B58F7DFBCF8091B0008F7727
:101510008093B00008958091B0008F7DF9CFCF9374
:10152000DF9390E0FC01E458FF4F249180579F4FD8
:10153000FC0184918823C9F090E0880F991FFC0179
:10154000E255FF4FA591B491FC01EC55FF4FC591B9
:10155000D49161110DC09FB7F8948C91209582238E
:101560008C938881282328839FBFDF91CF91089592
:10157000623051F49FB7F8943C91822F8095832379
:101580008C93E8812E2BEFCF8FB7F894EC912E2B14
:101590002C938FBFEACF1F93CF93DF93282F30E098
:1015A000F901E859FF4F8491F901E458FF4FD491B4
:1015B000F901E057FF4FC491CC23A9F0162F8111F8
:1015C0000E94660AEC2FF0E0EE0FFF1FEC55FF4F74
:1015D000A591B4918FB7F894EC91111108C0D095F2
:1015E000DE23DC938FBFDF91CF911F910895DE2B17
:1015F000F8CF1F920F920FB60F9211242F933F93A3
:101600004F935F936F937F938F939F93AF93BF930A
:10161000EF93FF938091A0029091A102A091A2026A
:10162000B091A30230919F0223E0230F2D3798F54C
:101630000196A11DB11D20939F028093A00290935B
:10164000A102A093A202B093A3028091A402909160
:10165000A502A091A602B091A7020196A11DB11DFD
:101660008093A4029093A502A093A602B093A70230
:101670000E94610AFF91EF91BF91AF919F918F916D
:101680007F916F915F914F913F912F910F900FBE7E
:101690000F901F90189526E8230F0296A11DB11DEB
:1016A000CACF84B5826084BD84B5816084BD85B5B0
:1016B000826085BD85B5816085BDEEE6F0E0808104
:1016C00081608083E1E8F0E0108280818260808325
:1016D000808181608083E0E8F0E0808181608083A8
:1016E000E1EBF0E0808184608083E0EBF0E08081DA
:1016F00081608083EAE7F0E080818460808380817C
:101700008260808380818160808380818068808323
:101710001092C1000895FFCFFFCFCF93DF93880FC2
:10172000990BFC01EC5FFD4FC081D181EC81FD8103
:1017300031978A819B81E80FF91F8D85DF01119711
:10174000823029F58BEA90E080839C939E818F8183
:10175000DF0112979C9311978C93CF0104979F01FF
:10176000295031091E92A217B307E1F720E8DF01E3
:101770001A972C9342971E92A817B907E1F7A881F0
:10178000B9817797ED93FC93DF91CF91089587EC22
:1017900090E0DACF089578940895F89408957894B5
:1017A0000895F894089508950E94510B0E94D30B58
:1017B0000E94650A0E942C0A8091A8020E94670676
:1017C00090E080E0089580914E028093A8020895F1
:1017D00008951F920F920FB60F9211242F933F93EB
:1017E0004F935F936F937F938F939F93AF93BF9329
:1017F000EF93FF93E091D601F091D7010995FF9106
:10180000EF91BF91AF919F918F917F916F915F9178
:101810004F913F912F910F900FBE0F901F901895F1
:101820001F920F920FB60F9211242F933F934F9355
:101830005F936F937F938F939F93AF93BF93EF9338
:10184000FF93E091D801F091D9010995FF91EF91B3
:10185000BF91AF919F918F917F916F915F914F91C8
:101860003F912F910F900FBE0F901F901895F894F5
:101870000C94400CEE0FFF1F0590F491E02D09949D
:04188000F894FFCF0A
:101884000000000000000000000000000000000054
:101894000000000000000000000000000000000044
:1018A4000000000000000000000000000000000034
:1018B4000000000000000000000000000000000024
:1018C4000000000000000000000000000000000014
:1018D4000000000000000000000000000000000004
:1018E4000000000000000000FFDC050000360200DC
:1018F400009A02FFFFFFFFFFFFFFFF0000E101006E
:10190400000000000000007017000002EA0100005F
:101914000000EE020000DC05000002F301000000FC
:1019240000F4010000F401000002000000030000C4
:1019340000000204000000010001000000FFFF009D
:101944000001000000000000000000000000000092
:10195400000400FF0000E80BE80BFF9B018C017DF5
:1019640001B901D408E701540602B901D408F00111
:10197400540600B901D408F901540601B401AF01B9
:10198400AA019A0228021A020C023602AD020B05C1
:101994000001500A000002030100AB02BB03000176
:1019A400300A000001020100A902B9020001400A44
:1019B400000000010100B903BB0450008B0B0000C0
:1019C40003000100D1010100010101000100006ACE
:1019D40007380741071A07B904B706A604E006BC8E
:1019E400075D0665067308AC07AB08D407DD081E5F
:1019F40008140958066609F707C809080A3D0800CB
:00000001FF
